{
  "_format": "hh3-artifact-1",
  "contractName": "SealedVerdict",
  "sourceName": "contracts/SealedVerdict.sol",
  "abi": [
    {
      "anonymous": false,
      "inputs": [
        {
          "indexed": true,
          "internalType": "uint256",
          "name": "bountyId",
          "type": "uint256"
        },
        {
          "indexed": false,
          "internalType": "bytes",
          "name": "aiReview",
          "type": "bytes"
        }
      ],
      "name": "AllAnswersJudged",
      "type": "event"
    },
    {
      "anonymous": false,
      "inputs": [
        {
          "indexed": true,
          "internalType": "uint256",
          "name": "bountyId",
          "type": "uint256"
        },
        {
          "indexed": true,
          "internalType": "uint256",
          "name": "submissionIndex",
          "type": "uint256"
        },
        {
          "indexed": true,
          "internalType": "address",
          "name": "submitter",
          "type": "address"
        }
      ],
      "name": "AnswerRevealed",
      "type": "event"
    },
    {
      "anonymous": false,
      "inputs": [
        {
          "indexed": true,
          "internalType": "uint256",
          "name": "bountyId",
          "type": "uint256"
        },
        {
          "indexed": true,
          "internalType": "address",
          "name": "owner",
          "type": "address"
        },
        {
          "indexed": false,
          "internalType": "string",
          "name": "title",
          "type": "string"
        },
        {
          "indexed": false,
          "internalType": "uint256",
          "name": "reward",
          "type": "uint256"
        },
        {
          "indexed": false,
          "internalType": "uint256",
          "name": "deadline",
          "type": "uint256"
        }
      ],
      "name": "BountyCreated",
      "type": "event"
    },
    {
      "anonymous": false,
      "inputs": [
        {
          "indexed": true,
          "internalType": "uint256",
          "name": "bountyId",
          "type": "uint256"
        },
        {
          "indexed": true,
          "internalType": "uint256",
          "name": "submissionIndex",
          "type": "uint256"
        },
        {
          "indexed": true,
          "internalType": "address",
          "name": "submitter",
          "type": "address"
        },
        {
          "indexed": false,
          "internalType": "bytes32",
          "name": "commitment",
          "type": "bytes32"
        }
      ],
      "name": "CommitmentSubmitted",
      "type": "event"
    },
    {
      "anonymous": false,
      "inputs": [
        {
          "indexed": true,
          "internalType": "uint256",
          "name": "bountyId",
          "type": "uint256"
        },
        {
          "indexed": true,
          "internalType": "uint256",
          "name": "winnerIndex",
          "type": "uint256"
        },
        {
          "indexed": true,
          "internalType": "address",
          "name": "winner",
          "type": "address"
        },
        {
          "indexed": false,
          "internalType": "uint256",
          "name": "reward",
          "type": "uint256"
        }
      ],
      "name": "WinnerFinalized",
      "type": "event"
    },
    {
      "inputs": [],
      "name": "MAX_ANSWER_LENGTH",
      "outputs": [
        {
          "internalType": "uint256",
          "name": "",
          "type": "uint256"
        }
      ],
      "stateMutability": "view",
      "type": "function"
    },
    {
      "inputs": [],
      "name": "MAX_SUBMISSIONS",
      "outputs": [
        {
          "internalType": "uint256",
          "name": "",
          "type": "uint256"
        }
      ],
      "stateMutability": "view",
      "type": "function"
    },
    {
      "inputs": [],
      "name": "REVEAL_WINDOW",
      "outputs": [
        {
          "internalType": "uint256",
          "name": "",
          "type": "uint256"
        }
      ],
      "stateMutability": "view",
      "type": "function"
    },
    {
      "inputs": [
        {
          "internalType": "uint256",
          "name": "",
          "type": "uint256"
        }
      ],
      "name": "bounties",
      "outputs": [
        {
          "internalType": "address",
          "name": "owner",
          "type": "address"
        },
        {
          "internalType": "string",
          "name": "title",
          "type": "string"
        },
        {
          "internalType": "string",
          "name": "rubric",
          "type": "string"
        },
        {
          "internalType": "uint256",
          "name": "reward",
          "type": "uint256"
        },
        {
          "internalType": "uint256",
          "name": "deadline",
          "type": "uint256"
        },
        {
          "internalType": "uint256",
          "name": "revealDeadline",
          "type": "uint256"
        },
        {
          "internalType": "bool",
          "name": "judged",
          "type": "bool"
        },
        {
          "internalType": "bool",
          "name": "finalized",
          "type": "bool"
        },
        {
          "internalType": "bytes",
          "name": "aiReview",
          "type": "bytes"
        },
        {
          "internalType": "uint256",
          "name": "winnerIndex",
          "type": "uint256"
        }
      ],
      "stateMutability": "view",
      "type": "function"
    },
    {
      "inputs": [
        {
          "internalType": "string",
          "name": "title",
          "type": "string"
        },
        {
          "internalType": "string",
          "name": "rubric",
          "type": "string"
        },
        {
          "internalType": "uint256",
          "name": "deadline",
          "type": "uint256"
        }
      ],
      "name": "createBounty",
      "outputs": [
        {
          "internalType": "uint256",
          "name": "bountyId",
          "type": "uint256"
        }
      ],
      "stateMutability": "payable",
      "type": "function"
    },
    {
      "inputs": [
        {
          "internalType": "uint256",
          "name": "bountyId",
          "type": "uint256"
        },
        {
          "internalType": "uint256",
          "name": "winnerIndex",
          "type": "uint256"
        }
      ],
      "name": "finalizeWinner",
      "outputs": [],
      "stateMutability": "nonpayable",
      "type": "function"
    },
    {
      "inputs": [
        {
          "internalType": "uint256",
          "name": "bountyId",
          "type": "uint256"
        }
      ],
      "name": "getBounty",
      "outputs": [
        {
          "internalType": "address",
          "name": "owner",
          "type": "address"
        },
        {
          "internalType": "string",
          "name": "title",
          "type": "string"
        },
        {
          "internalType": "string",
          "name": "rubric",
          "type": "string"
        },
        {
          "internalType": "uint256",
          "name": "reward",
          "type": "uint256"
        },
        {
          "internalType": "uint256",
          "name": "deadline",
          "type": "uint256"
        },
        {
          "internalType": "bool",
          "name": "judged",
          "type": "bool"
        },
        {
          "internalType": "bool",
          "name": "finalized",
          "type": "bool"
        },
        {
          "internalType": "uint256",
          "name": "submissionCount",
          "type": "uint256"
        },
        {
          "internalType": "uint256",
          "name": "winnerIndex",
          "type": "uint256"
        },
        {
          "internalType": "bytes",
          "name": "aiReview",
          "type": "bytes"
        }
      ],
      "stateMutability": "view",
      "type": "function"
    },
    {
      "inputs": [
        {
          "internalType": "uint256",
          "name": "bountyId",
          "type": "uint256"
        }
      ],
      "name": "getRevealedAnswers",
      "outputs": [
        {
          "internalType": "uint256[]",
          "name": "indexes",
          "type": "uint256[]"
        },
        {
          "internalType": "address[]",
          "name": "submitters",
          "type": "address[]"
        },
        {
          "internalType": "string[]",
          "name": "answers",
          "type": "string[]"
        }
      ],
      "stateMutability": "view",
      "type": "function"
    },
    {
      "inputs": [
        {
          "internalType": "uint256",
          "name": "bountyId",
          "type": "uint256"
        },
        {
          "internalType": "uint256",
          "name": "index",
          "type": "uint256"
        }
      ],
      "name": "getSubmission",
      "outputs": [
        {
          "internalType": "address",
          "name": "submitter",
          "type": "address"
        },
        {
          "internalType": "bytes32",
          "name": "commitment",
          "type": "bytes32"
        },
        {
          "internalType": "string",
          "name": "answer",
          "type": "string"
        },
        {
          "internalType": "bool",
          "name": "revealed",
          "type": "bool"
        }
      ],
      "stateMutability": "view",
      "type": "function"
    },
    {
      "inputs": [
        {
          "internalType": "uint256",
          "name": "bountyId",
          "type": "uint256"
        },
        {
          "internalType": "bytes",
          "name": "llmInput",
          "type": "bytes"
        }
      ],
      "name": "judgeAll",
      "outputs": [],
      "stateMutability": "nonpayable",
      "type": "function"
    },
    {
      "inputs": [],
      "name": "nextBountyId",
      "outputs": [
        {
          "internalType": "uint256",
          "name": "",
          "type": "uint256"
        }
      ],
      "stateMutability": "view",
      "type": "function"
    },
    {
      "inputs": [
        {
          "internalType": "uint256",
          "name": "bountyId",
          "type": "uint256"
        }
      ],
      "name": "reclaimReward",
      "outputs": [],
      "stateMutability": "nonpayable",
      "type": "function"
    },
    {
      "inputs": [
        {
          "internalType": "uint256",
          "name": "bountyId",
          "type": "uint256"
        },
        {
          "internalType": "string",
          "name": "answer",
          "type": "string"
        },
        {
          "internalType": "bytes32",
          "name": "salt",
          "type": "bytes32"
        }
      ],
      "name": "revealAnswer",
      "outputs": [],
      "stateMutability": "nonpayable",
      "type": "function"
    },
    {
      "inputs": [
        {
          "internalType": "uint256",
          "name": "bountyId",
          "type": "uint256"
        }
      ],
      "name": "revealedCount",
      "outputs": [
        {
          "internalType": "uint256",
          "name": "count",
          "type": "uint256"
        }
      ],
      "stateMutability": "view",
      "type": "function"
    },
    {
      "inputs": [
        {
          "internalType": "uint256",
          "name": "bountyId",
          "type": "uint256"
        },
        {
          "internalType": "bytes32",
          "name": "commitment",
          "type": "bytes32"
        }
      ],
      "name": "submitCommitment",
      "outputs": [],
      "stateMutability": "nonpayable",
      "type": "function"
    }
  ],
  "bytecode": "0x608060405260015f81905580546001600160a01b03191673532f0df0896f353d8c3dd8cc134e8129da2a3948179055348015610039575f80fd5b50612471806100475f395ff3fe6080604052600436106100e4575f3560e01c8063d5198a7111610087578063e6a3d9dc11610057578063e6a3d9dc1461026b578063ee8c4bbf1461028a578063fd14fad4146102bf578063fd3a8329146102d3575f80fd5b8063d5198a71146101d9578063d8964ee9146101f8578063dc2f874414610217578063e29beab51461024c575f80fd5b80635a7722f1116100c25780635a7722f11461015657806376a26a3c146101775780638e78968314610196578063b7ed7071146101aa575f80fd5b80630bfa5872146100e857806317e931cf1461011f5780632bfa7d6014610143575b5f80fd5b3480156100f3575f80fd5b50610107610102366004611a60565b6102e8565b60405161011693929190611b1c565b60405180910390f35b34801561012a575f80fd5b506101356201518081565b604051908152602001610116565b610135610151366004611bf5565b6105c1565b348015610161575f80fd5b50610175610170366004611c62565b610709565b005b348015610182575f80fd5b50610135610191366004611a60565b6109ce565b3480156101a1575f80fd5b50610135600a81565b3480156101b5575f80fd5b506101c96101c4366004611c62565b610a33565b6040516101169493929190611c82565b3480156101e4575f80fd5b506101756101f3366004611cbb565b610bab565b348015610203575f80fd5b50610175610212366004611d09565b610e6b565b348015610222575f80fd5b50610236610231366004611a60565b6110ce565b6040516101169a99989796959493929190611d50565b348015610257575f80fd5b50610175610266366004611a60565b6112c3565b348015610276575f80fd5b50610175610285366004611c62565b6114b1565b348015610295575f80fd5b506102a96102a4366004611a60565b611729565b6040516101169a99989796959493929190611dd8565b3480156102ca575f80fd5b506101355f5481565b3480156102de575f80fd5b506101356107d081565b5f818152600260205260409020546060908190819084906001600160a01b031661032d5760405162461bcd60e51b815260040161032490611e5f565b60405180910390fd5b5f85815260026020526040812060090190610347876109ce565b9050806001600160401b0381111561036157610361611e89565b60405190808252806020026020018201604052801561038a578160200160208202803683370190505b509550806001600160401b038111156103a5576103a5611e89565b6040519080825280602002602001820160405280156103ce578160200160208202803683370190505b509450806001600160401b038111156103e9576103e9611e89565b60405190808252806020026020018201604052801561041c57816020015b60608152602001906001900390816104075790505b5093505f805b83548110156105b55783818154811061043d5761043d611e9d565b5f91825260209091206003600490920201015460ff16156105ad578088838151811061046b5761046b611e9d565b60200260200101818152505083818154811061048957610489611e9d565b5f91825260209091206004909102015487516001600160a01b03909116908890849081106104b9576104b9611e9d565b60200260200101906001600160a01b031690816001600160a01b0316815250508381815481106104eb576104eb611e9d565b905f5260205f209060040201600201805461050590611eb1565b80601f016020809104026020016040519081016040528092919081815260200182805461053190611eb1565b801561057c5780601f106105535761010080835404028352916020019161057c565b820191905f5260205f20905b81548152906001019060200180831161055f57829003601f168201915b505050505086838151811061059357610593611e9d565b602002602001018190525081806105a990611efd565b9250505b600101610422565b50505050509193909250565b5f8034116106035760405162461bcd60e51b815260206004820152600f60248201526e1c995dd85c99081c995c5d5a5c9959608a1b6044820152606401610324565b4282116106455760405162461bcd60e51b815260206004820152601060248201526f191958591b1a5b99481a5b881c185cdd60821b6044820152606401610324565b5f8054908061065383611efd565b909155505f81815260026020526040902080546001600160a01b0319163317815590915060018101610686878983611f61565b5060028101610696858783611f61565b50346003820155600481018390556106b1620151808461201a565b60058201555f196008820155604051339083907f4e9ff8debce04524518777fdf120513b8f7e1f434da1099fd190d1aae0d495b6906106f7908b908b9034908a9061202d565b60405180910390a35095945050505050565b5f8281526002602052604090205482906001600160a01b031661073e5760405162461bcd60e51b815260040161032490611e5f565b5f8381526002602052604090205483906001600160a01b031633146107755760405162461bcd60e51b81526004016103249061206b565b5f848152600260205260409020600681015460ff166107c75760405162461bcd60e51b815260206004820152600e60248201526d1b9bdd081a9d5919d959081e595d60921b6044820152606401610324565b6006810154610100900460ff16156107f15760405162461bcd60e51b815260040161032490612095565b600981015484106108345760405162461bcd60e51b815260206004820152600d60248201526c0d2dcecc2d8d2c840d2dcc8caf609b1b6044820152606401610324565b80600901848154811061084957610849611e9d565b5f91825260209091206003600490920201015460ff166108a15760405162461bcd60e51b81526020600482015260136024820152721dda5b9b995c881b9bdd081c995d99585b1959606a1b6044820152606401610324565b60068101805461ff001916610100179055600881018490556009810180545f9190869081106108d2576108d2611e9d565b5f918252602082206004919091020154600384018054908390556040516001600160a01b0390921693509190839083908381818185875af1925050503d805f8114610938576040519150601f19603f3d011682016040523d82523d5f602084013e61093d565b606091505b505090508061097f5760405162461bcd60e51b815260206004820152600e60248201526d1c185e5b595b9d0819985a5b195960921b6044820152606401610324565b826001600160a01b031687897f2eb0120759ae6dd1505f3f092609ec7e75433fb2401ad648ebeb5bd4bd55e5b6856040516109bc91815260200190565b60405180910390a45050505050505050565b5f818152600260205260408120600901815b8154811015610a2c578181815481106109fb576109fb611e9d565b5f91825260209091206003600490920201015460ff1615610a245782610a2081611efd565b9350505b6001016109e0565b5050919050565b5f828152600260205260408120548190606090829086906001600160a01b0316610a6f5760405162461bcd60e51b815260040161032490611e5f565b5f87815260026020526040902060098101548710610abf5760405162461bcd60e51b815260206004820152600d60248201526c0d2dcecc2d8d2c840d2dcc8caf609b1b6044820152606401610324565b5f816009018881548110610ad557610ad5611e9d565b5f91825260209091206004909102018054600182015460038301546002840180549495506001600160a01b039093169391929160ff909116908290610b1990611eb1565b80601f0160208091040260200160405190810160405280929190818152602001828054610b4590611eb1565b8015610b905780601f10610b6757610100808354040283529160200191610b90565b820191905f5260205f20905b815481529060010190602001808311610b7357829003601f168201915b50505050509150965096509650965050505092959194509250565b5f8481526002602052604090205484906001600160a01b0316610be05760405162461bcd60e51b815260040161032490611e5f565b5f8581526002602052604090206004810154421015610c335760405162461bcd60e51b815260206004820152600f60248201526e3932bb32b0b6103737ba1037b832b760891b6044820152606401610324565b80600501544210610c765760405162461bcd60e51b815260206004820152600d60248201526c1c995d99585b0818db1bdcd959609a1b6044820152606401610324565b6107d0841115610cba5760405162461bcd60e51b815260206004820152600f60248201526e616e7377657220746f6f206c6f6e6760881b6044820152606401610324565b5f86815260036020908152604080832033845290915281205490819003610d135760405162461bcd60e51b815260206004820152600d60248201526c1b9bc818dbdb5b5a5d1b595b9d609a1b6044820152606401610324565b5f60098301610d236001846120c0565b81548110610d3357610d33611e9d565b5f9182526020909120600490910201600381015490915060ff1615610d8d5760405162461bcd60e51b815260206004820152601060248201526f185b1c9958591e481c995d99585b195960821b6044820152606401610324565b5f878787338c604051602001610da79594939291906120d3565b60405160208183030381529060405280519060200120905081600101548114610e085760405162461bcd60e51b81526020600482015260136024820152720c6dedadad2e8dacadce840dad2e6dac2e8c6d606b1b6044820152606401610324565b60028201610e17888a83611f61565b5060038201805460ff191660019081179091553390610e3690856120c0565b6040518b907f30cd907c52cb0d98c4502ca97784ad8dd7813786ea1a7cce6e1594fe96c20b16905f90a4505050505050505050565b5f8381526002602052604090205483906001600160a01b0316610ea05760405162461bcd60e51b815260040161032490611e5f565b5f8481526002602052604090205484906001600160a01b03163314610ed75760405162461bcd60e51b81526004016103249061206b565b5f8581526002602052604090206005810154421015610f2a5760405162461bcd60e51b815260206004820152600f60248201526e3932bb32b0b6103737ba1037bb32b960891b6044820152606401610324565b600681015460ff1615610f705760405162461bcd60e51b815260206004820152600e60248201526d185b1c9958591e481a9d5919d95960921b6044820152606401610324565b6006810154610100900460ff1615610f9a5760405162461bcd60e51b815260040161032490612095565b5f610fa4876109ce565b11610fe75760405162461bcd60e51b81526020600482015260136024820152726e6f2072657665616c656420616e737765727360681b6044820152606401610324565b5f61102961080287878080601f0160208091040260200160405190810160405280939291908181526020018383808284375f9201919091525061198c92505050565b90505f805f838060200190518101906110429190612231565b50935050925092508215819061106b5760405162461bcd60e51b815260040161032491906122ed565b5060068501805460ff19166001179055600785016110898382612306565b50897fb51288ae628dca25614026175dc22a78631acc1a31f034c68c3fa241ca0fd05c836040516110ba91906122ed565b60405180910390a250505050505050505050565b60026020525f9081526040902080546001820180546001600160a01b0390921692916110f990611eb1565b80601f016020809104026020016040519081016040528092919081815260200182805461112590611eb1565b80156111705780601f1061114757610100808354040283529160200191611170565b820191905f5260205f20905b81548152906001019060200180831161115357829003601f168201915b50505050509080600201805461118590611eb1565b80601f01602080910402602001604051908101604052809291908181526020018280546111b190611eb1565b80156111fc5780601f106111d3576101008083540402835291602001916111fc565b820191905f5260205f20905b8154815290600101906020018083116111df57829003601f168201915b50505050600383015460048401546005850154600686015460078701805496979496939550919360ff808316946101009093041692909161123c90611eb1565b80601f016020809104026020016040519081016040528092919081815260200182805461126890611eb1565b80156112b35780601f1061128a576101008083540402835291602001916112b3565b820191905f5260205f20905b81548152906001019060200180831161129657829003601f168201915b505050505090806008015490508a565b5f8181526002602052604090205481906001600160a01b03166112f85760405162461bcd60e51b815260040161032490611e5f565b5f8281526002602052604090205482906001600160a01b0316331461132f5760405162461bcd60e51b81526004016103249061206b565b5f83815260026020526040902060058101544210156113825760405162461bcd60e51b815260206004820152600f60248201526e3932bb32b0b6103737ba1037bb32b960891b6044820152606401610324565b6006810154610100900460ff16156113ac5760405162461bcd60e51b815260040161032490612095565b6113b5846109ce565b156113fa5760405162461bcd60e51b8152602060048201526015602482015274185b9cddd95c9cc81dd95c99481c995d99585b1959605a1b6044820152606401610324565b60068101805461ff0019166101001790556003810180545f9182905582546040519192916001600160a01b039091169083908381818185875af1925050503d805f8114611462576040519150601f19603f3d011682016040523d82523d5f602084013e611467565b606091505b50509050806114a95760405162461bcd60e51b815260206004820152600e60248201526d1c185e5b595b9d0819985a5b195960921b6044820152606401610324565b505050505050565b5f8281526002602052604090205482906001600160a01b03166114e65760405162461bcd60e51b815260040161032490611e5f565b5f8381526002602052604090206004810154421061153b5760405162461bcd60e51b81526020600482015260126024820152711cdd589b5a5cdcda5bdb9cc818db1bdcd95960721b6044820152606401610324565b6009810154600a116115865760405162461bcd60e51b8152602060048201526014602482015273746f6f206d616e79207375626d697373696f6e7360601b6044820152606401610324565b5f848152600360209081526040808320338452909152902054156115e05760405162461bcd60e51b8152602060048201526011602482015270185b1c9958591e481cdd589b5a5d1d1959607a1b6044820152606401610324565b826116205760405162461bcd60e51b815260206004820152601060248201526f195b5c1d1e4818dbdb5b5a5d1b595b9d60821b6044820152606401610324565b604080516080810182523381526020808201868152835180830185525f808252948401908152606084018590526009860180546001808201835591875293909520845160049094020180546001600160a01b0319166001600160a01b03909416939093178355905193820193909355915190919060028201906116a39082612306565b50606091909101516003918201805460ff191691151591909117905560098201545f8681526020928352604080822033808452945290208190556116e9906001906120c0565b857f321d5fdb70890967d189113617c8111202ccfaba27c48f140fbb3989bcbb04408660405161171b91815260200190565b60405180910390a450505050565b5f81815260026020526040812054606090819083908190819081908190819087908b906001600160a01b03166117715760405162461bcd60e51b815260040161032490611e5f565b5f8c815260026020819052604090912080546003820154600483015460068401546009850154600886015460018701805497986001600160a01b03909716979096890195949360ff808216946101009092041692909160078b019089906117d790611eb1565b80601f016020809104026020016040519081016040528092919081815260200182805461180390611eb1565b801561184e5780601f106118255761010080835404028352916020019161184e565b820191905f5260205f20905b81548152906001019060200180831161183157829003601f168201915b5050505050985087805461186190611eb1565b80601f016020809104026020016040519081016040528092919081815260200182805461188d90611eb1565b80156118d85780601f106118af576101008083540402835291602001916118d8565b820191905f5260205f20905b8154815290600101906020018083116118bb57829003601f168201915b505050505097508080546118eb90611eb1565b80601f016020809104026020016040519081016040528092919081815260200182805461191790611eb1565b80156119625780601f1061193957610100808354040283529160200191611962565b820191905f5260205f20905b81548152906001019060200180831161194557829003601f168201915b505050505090509b509b509b509b509b509b509b509b509b509b5050509193959799509193959799565b60605f80846001600160a01b0316846040516119a891906123c1565b5f604051808303815f865af19150503d805f81146119e1576040519150601f19603f3d011682016040523d82523d5f602084013e6119e6565b606091505b5091509150816119f857805160208201fd5b6001600160a01b0385166108011480611a1b57506001600160a01b038516610802145b80611a3057506001600160a01b03851661081b145b15611a56575f81806020019051810190611a4a91906123dc565b9450611a5a9350505050565b9150505b92915050565b5f60208284031215611a70575f80fd5b5035919050565b5f5b83811015611a91578181015183820152602001611a79565b50505f910152565b5f8151808452611ab0816020860160208601611a77565b601f01601f19169290920160200192915050565b5f8282518085526020808601955060208260051b840101602086015f5b84811015611b0f57601f19868403018952611afd838351611a99565b98840198925090830190600101611ae1565b5090979650505050505050565b606080825284519082018190525f906020906080840190828801845b82811015611b5457815184529284019290840190600101611b38565b505050838103828501528551808252868301918301905f5b81811015611b915783516001600160a01b031683529284019291840191600101611b6c565b50508481036040860152611ba58187611ac4565b98975050505050505050565b5f8083601f840112611bc1575f80fd5b5081356001600160401b03811115611bd7575f80fd5b602083019150836020828501011115611bee575f80fd5b9250929050565b5f805f805f60608688031215611c09575f80fd5b85356001600160401b0380821115611c1f575f80fd5b611c2b89838a01611bb1565b90975095506020880135915080821115611c43575f80fd5b50611c5088828901611bb1565b96999598509660400135949350505050565b5f8060408385031215611c73575f80fd5b50508035926020909101359150565b60018060a01b0385168152836020820152608060408201525f611ca86080830185611a99565b9050821515606083015295945050505050565b5f805f8060608587031215611cce575f80fd5b8435935060208501356001600160401b03811115611cea575f80fd5b611cf687828801611bb1565b9598909750949560400135949350505050565b5f805f60408486031215611d1b575f80fd5b8335925060208401356001600160401b03811115611d37575f80fd5b611d4386828701611bb1565b9497909650939450505050565b6001600160a01b038b168152610140602082018190525f90611d748382018d611a99565b90508281036040840152611d88818c611a99565b90508960608401528860808401528760a084015286151560c084015285151560e0840152828103610100840152611dbf8186611a99565b915050826101208301529b9a5050505050505050505050565b6001600160a01b038b168152610140602082018190525f90611dfc8382018d611a99565b90508281036040840152611e10818c611a99565b905089606084015288608084015287151560a084015286151560c08401528560e084015284610100840152828103610120840152611e4e8185611a99565b9d9c50505050505050505050505050565b60208082526010908201526f189bdd5b9d1e481b9bdd08199bdd5b9960821b604082015260600190565b634e487b7160e01b5f52604160045260245ffd5b634e487b7160e01b5f52603260045260245ffd5b600181811c90821680611ec557607f821691505b602082108103611ee357634e487b7160e01b5f52602260045260245ffd5b50919050565b634e487b7160e01b5f52601160045260245ffd5b5f60018201611f0e57611f0e611ee9565b5060010190565b601f821115611f5c57805f5260205f20601f840160051c81016020851015611f3a5750805b601f840160051c820191505b81811015611f59575f8155600101611f46565b50505b505050565b6001600160401b03831115611f7857611f78611e89565b611f8c83611f868354611eb1565b83611f15565b5f601f841160018114611fbd575f8515611fa65750838201355b5f19600387901b1c1916600186901b178355611f59565b5f83815260208120601f198716915b82811015611fec5786850135825560209485019460019092019101611fcc565b5086821015612008575f1960f88860031b161c19848701351681555b505060018560011b0183555050505050565b80820180821115611a5a57611a5a611ee9565b60608152836060820152838560808301375f608085830101525f6080601f19601f870116830101905083602083015282604083015295945050505050565b60208082526010908201526f3737ba103137bab73a3c9037bbb732b960811b604082015260600190565b602080825260119082015270185b1c9958591e48199a5b985b1a5e9959607a1b604082015260600190565b81810381811115611a5a57611a5a611ee9565b8486823790930191825260601b6bffffffffffffffffffffffff191660208201526034810191909152605401919050565b5f82601f830112612113575f80fd5b81516001600160401b038082111561212d5761212d611e89565b604051601f8301601f19908116603f0116810190828211818310171561215557612155611e89565b8160405283815286602085880101111561216d575f80fd5b61217e846020830160208901611a77565b9695505050505050565b5f60608284031215612198575f80fd5b604051606081016001600160401b0382821081831117156121bb576121bb611e89565b8160405282935084519150808211156121d2575f80fd5b6121de86838701612104565b835260208501519150808211156121f3575f80fd5b6121ff86838701612104565b60208401526040850151915080821115612217575f80fd5b5061222485828601612104565b6040830152505092915050565b5f805f805f60a08688031215612245575f80fd5b85518015158114612254575f80fd5b60208701519095506001600160401b0380821115612270575f80fd5b61227c89838a01612104565b95506040880151915080821115612291575f80fd5b61229d89838a01612104565b945060608801519150808211156122b2575f80fd5b6122be89838a01612104565b935060808801519150808211156122d3575f80fd5b506122e088828901612188565b9150509295509295909350565b602081525f6122ff6020830184611a99565b9392505050565b81516001600160401b0381111561231f5761231f611e89565b6123338161232d8454611eb1565b84611f15565b602080601f831160018114612366575f841561234f5750858301515b5f19600386901b1c1916600185901b1785556114a9565b5f85815260208120601f198616915b8281101561239457888601518255948401946001909101908401612375565b50858210156123b157878501515f19600388901b60f8161c191681555b5050505050600190811b01905550565b5f82516123d2818460208701611a77565b9190910192915050565b5f80604083850312156123ed575f80fd5b82516001600160401b0380821115612403575f80fd5b61240f86838701612104565b93506020850151915080821115612424575f80fd5b5061243185828601612104565b915050925092905056fea2646970667358221220add98d52899070aeb19df16c1053a4f4b1bd7214641433f50978dc9e20dbb98764736f6c63430008180033",
  "linkReferences": {},
  "deployedLinkReferences": {},
  "immutableReferences": {},
  "inputSourceName": "project/contracts/SealedVerdict.sol",
  "buildInfoId": "solc-0_8_24-a1c8ba7f39b25c541ebb380e7f3c6d3d766714a9"
}